:020000040000fa
:080000000002040000000000f2
:020000040000fa
:04000800e80200000a
:020000040000fa
:04000c00e802000006
:020000040000fa
:04001000e802000002
:020000040000fa
:04001400e8020000fe
:020000040000fa
:04001800e8020000fa
:020000040000fa
:04001c00e8020000f6
:020000040000fa
:04002000e8020000f2
:020000040000fa
:04002400e8020000ee
:020000040000fa
:04002800e8020000ea
:020000040000fa
:04002c00e8020000e6
:020000040000fa
:04003000e8020000e2
:020000040000fa
:04003400e8020000de
:020000040000fa
:04003800e8020000da
:020000040000fa
:04003c00e8020000d6
:020000040000fa
:04004000e8020000d2
:020000040000fa
:04004400e8020000ce
:020000040000fa
:04004800e8020000ca
:020000040000fa
:04004c00e8020000c6
:020000040000fa
:04005000e8020000c2
:020000040000fa
:04005400e8020000be
:020000040000fa
:04005800e8020000ba
:020000040000fa
:04005c00e8020000b6
:020000040000fa
:04006000e8020000b2
:020000040000fa
:04006400e8020000ae
:020000040000fa
:04006800e8020000aa
:020000040000fa
:04006c00e8020000a6
:020000040000fa
:04007000e8020000a2
:020000040000fa
:04007400e80200009e
:020000040000fa
:04007800e80200009a
:020000040000fa
:04007c00e802000096
:020000040000fa
:04008000e802000092
:020000040000fa
:04008400e80200008e
:020000040000fa
:04008800e80200008a
:020000040000fa
:04008c00e802000086
:020000040000fa
:04009000e802000082
:020000040000fa
:04009400e80200007e
:020000040000fa
:04009800e80200007a
:020000040000fa
:04009c00e802000076
:020000040000fa
:0400a000e802000072
:020000040000fa
:0400a400e80200006e
:020000040000fa
:0400a800e80200006a
:020000040000fa
:0400ac00e802000066
:020000040000fa
:0400b000e802000062
:020000040000fa
:0400b400e80200005e
:020000040000fa
:0400b800e80200005a
:020000040000fa
:0400bc00e802000056
:020000040000fa
:0400c000e802000052
:020000040000fa
:0400c400e80200004e
:020000040000fa
:0400c800e80200004a
:020000040000fa
:0400cc00e802000046
:020000040000fa
:0400d000e802000042
:020000040000fa
:0400d400e80200003e
:020000040000fa
:0400d800e80200003a
:020000040000fa
:0400dc00e802000036
:020000040000fa
:0400e000e802000032
:020000040000fa
:0400e400e80200002e
:020000040000fa
:0400e800e80200002a
:020000040000fa
:0400ec00e802000026
:020000040000fa
:0400f000e802000022
:020000040000fa
:0400f400e80200001e
:020000040000fa
:0400f800e80200001a
:020000040000fa
:0400fc00e802000016
:020000040000fa
:04010000e802000011
:020000040000fa
:04010400e80200000d
:020000040000fa
:04010800e802000009
:020000040000fa
:04010c00e802000005
:020000040000fa
:04011000e802000001
:020000040000fa
:04011400e8020000fd
:020000040000fa
:04011800e8020000f9
:020000040000fa
:04011c00e8020000f5
:020000040000fa
:04012000e8020000f1
:020000040000fa
:04012400e8020000ed
:020000040000fa
:04012800e8020000e9
:020000040000fa
:04012c00e8020000e5
:020000040000fa
:04013000e8020000e1
:020000040000fa
:04013400e8020000dd
:020000040000fa
:04013800e8020000d9
:020000040000fa
:04013c00e8020000d5
:020000040000fa
:04014000e8020000d1
:020000040000fa
:04014400e8020000cd
:020000040000fa
:04020800e802000008
:020000040000fa
:04020c00e802000004
:020000040000fa
:04021000e802000000
:020000040000fa
:04021400e8020000fc
:020000040000fa
:04021800e8020000f8
:020000040000fa
:04021c00e8020000f4
:020000040000fa
:04022000e8020000f0
:020000040000fa
:04022400e8020000ec
:020000040000fa
:04022800e8020000e8
:020000040000fa
:04022c00e8020000e4
:020000040000fa
:04023000e8020000e0
:020000040000fa
:04023400e8020000dc
:020000040000fa
:04023800e8020000d8
:020000040000fa
:04023c00e8020000d4
:020000040000fa
:04024000e8020000d0
:020000040000fa
:04024400e8020000cc
:020000040000fa
:04024800e8020000c8
:020000040000fa
:04024c00e8020000c4
:020000040000fa
:04025000e8020000c0
:020000040000fa
:04025400e8020000bc
:020000040000fa
:04025800e8020000b8
:020000040000fa
:04025c00e8020000b4
:020000040000fa
:04026000e8020000b0
:020000040000fa
:04026400e8020000ac
:020000040000fa
:04026800e8020000a8
:020000040000fa
:04026c00e8020000a4
:020000040000fa
:04027000e8020000a0
:020000040000fa
:04027400e80200009c
:020000040000fa
:04027800e802000098
:020000040000fa
:04027c00e802000094
:020000040000fa
:04028000e802000090
:020000040000fa
:04028400e80200008c
:020000040000fa
:04028800e802000088
:020000040000fa
:04028c00e802000084
:020000040000fa
:04029000e802000080
:020000040000fa
:04029400e80200007c
:020000040000fa
:04029800e802000078
:020000040000fa
:04029c00e802000074
:020000040000fa
:0402a000e802000070
:020000040000fa
:0402a400e80200006c
:020000040000fa
:0402a800e802000068
:020000040000fa
:0402ac00e802000064
:020000040000fa
:0402b000e802000060
:020000040000fa
:0402b400e80200005c
:020000040000fa
:0402b800e802000058
:020000040000fa
:0402bc00e802000054
:020000040000fa
:0402c000e802000050
:020000040000fa
:0402c400e80200004c
:020000040000fa
:0402c800e802000048
:020000040000fa
:0402cc00e802000044
:020000040000fa
:0402d000e802000040
:020000040000fa
:0402d400e80200003c
:020000040000fa
:0402d800e802000038
:020000040000fa
:0402dc00e802000034
:020000040000fa
:0402e000e802000030
:020000040000fa
:0402e400e80200002c
:020000040000fa
:0402e800e802000028
:020000040000fa
:0402ec00e802000024
:020000040000fa
:0402f000e802000020
:020000040000fa
:0402f400e80200001c
:020000040000fa
:0402f800e802000018
:020000040000fa
:0402fc00e802000014
:020000040000fa
:04030000e80200000f
:020000040000fa
:04030400e80200000b
:020000040000fa
:04030800e802000007
:020000040000fa
:04030c00e802000003
:020000040000fa
:04031000e8020000ff
:020000040000fa
:04031400e8020000fb
:020000040000fa
:04031800e8020000f7
:020000040000fa
:04031c00e8020000f3
:020000040000fa
:04032000e8020000ef
:020000040000fa
:04032400e8020000eb
:020000040000fa
:04032800e8020000e7
:020000040000fa
:04032c00e8020000e3
:020000040000fa
:04033000e8020000df
:020000040000fa
:04033400e8020000db
:020000040000fa
:04033800e8020000d7
:020000040000fa
:04033c00e8020000d3
:020000040000fa
:04034000e8020000cf
:020000040000fa
:04034400e8020000cb
:020000040000fa
:10040000ef8a20000eff27000e0188000000000088
:10041000000020000000e000020032000001200087
:10042000200288000e000700600a21000100200061
:10043000810f700001003200220007000000200040
:100440000000e00002003200000002000000000096
:1004500044110200000000000040da000000fe002d
:100460004440a900e00020000000e000030032004a
:1004700000002000a00188004440a8000000060001
:10048000f03fb1000180b10006003500ee03090025
:1004900000000000403fb1000180b100fbff3d00c3
:1004a0001000b000203fb0000200350000800900bd
:1004b00000000000000006008a1f78008b1f7800f3
:1004c0000000060091018800800478000000eb0025
:1004d0001a003700e284440032a0b4009905ba0043
:1004e000e284440032a0b4009906ba00e2844400d9
:1004f00032a0b4000006eb00476fde00fd07b2003b
:10050000636ce10003003a00ebff07000000eb0022
:100510000a003700606ce10004003a00005deb0067
:100520008b05e900fdff3e00040037006168e10033
:10053000010032000086eb000b00070019c7ba006b
:100540001905ba000e04e00003003a000a00e000ba
:10055000e0ff3a0000000600fe07b2009e0188009e
:100560008a047800f5ff3700395dba008b05e90091
:100570000c003200295dba008b05e900080032004a
:100580000c00e00003003a00e284440032a0b40012
:10059000f5ff370019ddba008b05e900faff3a00d4
:1005a0008904e800e184440032a0b40000000600a1
:1005b000ec0204000000000036040400000000000b
:1005c0001a0b0400000000000000040000000000fe
:1005d0000040da000000fe00889fbe0000047800a2
:1005e0000100780082047800880178000901780011
:1005f0001100200049000700890f5000010032005f
:100600000004eb00080078004f04be000000060064
:100610000000fa00e88157004fb99700818220005e
:10062000c02e20005b0107000080fa0000000600d9
:10063000889fbe008a1f7800000478000800e00050
:100640000d003a0068872000700544008004eb002c
:10065000580078000000e00004003200f4ff0700ba
:100660000000e00001003d008084eb008a0f540090
:10067000f7ff3a0025003700000022001800600054
:100680008004eb0021003200a80490000f00370026
:1006900009015100384090000000fb0089007800fb
:1006a0003f0407000000e00007003c002800900025
:1006b0004004980060049800500c98001890a00026
:1006c0008084eb00110037008084440048019000d2
:1006d000828f5400eeff39002800900040049800fb
:1006e0009800780002c020000281600001003a00fa
:1006f0003800900001e8a300020032006004980076
:1007000001003700500c98008004eb0009007800cd
:100710004f0578004f04be0000000600889fbe0011
:100720008a9fbe008c9fbe008e1f78000006780056
:100730000104780002007800830478000881b90081
:10074000020778000200e000420032000800e000ea
:100750004100320082057800c900900069009000d5
:10076000808f500004003900090078000e01070056
:100770000000e00029003500004020001900600062
:100780000a0032000b017800a10020000c00780064
:100790004c010700800678000d00e00006003200e2
:1007a000610516000a854600040037000b05780035
:1007b0008006eb00010037000b057800490090002f
:1007c000e9009000808050008a8f500002003100c4
:1007d000010578008006eb000a0178008c007800a3
:1007e000420107008a855500490090000a00400038
:1007f000c00498000d00e0000400320009007800f9
:100800008bff07000000e00004003a000b00e0004e
:10081000020032000a064600cfff370000802000a9
:1008200019006000020032000900780080ff070014
:1008300000c0200019006000020032004900900052
:10084000e00498008b055700110009008885d80046
:10085000010037000000eb004f0778004f06be0094
:100860004f05be004f04be0000000600889fbe007a
:10087000000478000203be008104780008027800ba
:1008800089017800120020000600be001e0107004a
:10089000890f5000010032000004eb0008007800ce
:1008a0004f04be00000006006800fa00889fbe00ea
:1008b0008a9fbe00800478000104780082057800d9
:1008c000030578008400780000f92f000f00400035
:1008d00079010700d98f9f00fb8f9f000000eb007c
:1008e000a09f9f00e88f9f009a84fb000904fb00f3
:1008f0008904ea00cf4cde0050022000800f540033
:100900000d003200e18f54000b003a00090178001d
:100910008a0078007f889700df8997000300010034
:10092000f08f9f000000e000950032002f989700a4
:100930000000e800a09f9f0009054500500220002c
:10094000800f5400040032000800e000e6ff3a0087
:100950002f9897008b0037000000eb00809f9f00ce
:10096000f0979f00e0979f00d0979f00c0979f004f
:10097000b0979f0007003700c18920000100500098
:10098000000040000189200061007800cf989700a6
:1009900001007000c09f9f000a04780008057800dd
:1009a000ba4478008900fb00c08920004401070098
:1009b0000000e000f0ff3a00a1c2b30081cf540074
:1009c0000e003a008f8897000180e900808f9f0019
:1009d00010007800b09f9f000000e00005003d007f
:1009e0000000ea00b09f9f004f9897000020a000f1
:1009f000c09f9f000804e80010003700b09f9f00d0
:100a0000880078000000eb0005003700f3ff2700a6
:100a1000830f5000020032006a02b9000400410056
:100a200001047800880078003101fb000203b10066
:100a3000e90f5100f5ff3600b09f9f00e0c2b30000
:100a4000984f1000020032000080eb0019003700c0
:100a5000a0c2b300d84f100007003a008f8897005b
:100a60000180e900808f9f0010007800909f9f0018
:100a70000804e800100037000000eb00909f9f0082
:100a80008800780005003700f3ff2700830f50002f
:100a9000020032006a02b90004004100010478003b
:100aa000880078003101fb000203b100e90f51001a
:100ab000f5ff3600909f9f00984478008900fb0066
:100ac00080882000fe0007000000e00002003200e5
:100ad0000804e800010037008044eb00a97f9f0074
:100ae00080c6b30080cf540006003a0098cf1400af
:100af00010003a0066405000a07f9f000804e80004
:100b00000c003700c0c6b30080cf540009003a0083
:100b100098cf140007003a0067404000d84f1000fb
:100b200002003a006e4050000100370010c7b300c9
:100b3000a07f9f001801fb00c3fb2f008f814100a5
:100b400001f92f008f80400020f92f000f00400096
:100b5000e70007000000e00009003a00c1fb2f0099
:100b60008f80400020f92f000f0040002d0107006a
:100b70000000e000020035000805e8005aff3700d9
:100b80000080eb004f05be004f04be000080fa005d
:100b9000000006000302780082017800010178005d
:100ba0006143200040ff3700889fbe008a1f780005
:100bb00000047800c8009000680190000000eb007d
:100bc000828f50003c003900180078002200290074
:100bd00002016000e20f51000700320001202000f6
:100be0000000e0000100350001202400008c7000ae
:100bf0000080eb0030003700020026000200600099
:100c0000820f500009003a0038009000808f500099
:100c1000060039000800780085fe07008000780093
:100c20000080eb000100e00023003a001805780086
:100c300000c020000000650018003a00a8049000e1
:100c40006002200008004000808f540013003a002a
:100c50000020200000020700200498000000e000af
:100c600005003a0029049800490498008904e80026
:100c700039049800080037000a60a0000a0c7800c8
:100c8000400498000120200080804000310498003a
:100c9000400c9800500c98001b02070028009000a0
:100ca000500498003800900060049800000026006e
:100cb000180c70000000eb004f0578004f04be00d8
:100cc0000000060003003700b0cf1000050032001e
:100cd0000201e900800178000200e000faff3a001a
:100ce0000000050003007800000006008001780085
:100cf00002003700b15978000201e9000200e0006b
:100d0000fcff3a0000000600e6874700889fbe000f
:100d10008a9fbe008c9fbe008e1f780082bf9f00fe
:100d200004047800029ab900f4b79f000400e000c0
:100d3000590032000fb997000200e000570032005e
:100d40000006be0004077800c8009000680090000c
:100d5000808f5000040039000800780092ff0700df
:100d60000000e0003b00350000402000180060005b
:100d70000a0032008e017800a20020000c00be00a4
:100d8000c90207000005be000080750007003200a0
:100d90008c0455008904e800050037008e047800b3
:100da0000a0020000b002000010037008e047800ac
:100db000480190006800900002005000890f500028
:100dc00003003100800478000a0020000b0020009e
:100dd0006111b800828fd2008381d20009027800ad
:100de0000c00be00cb020700090757004800900026
:100df00009004000400498000a8575000400320094
:100e0000080078000afe07000000e00011003a0028
:100e10000e00e0000f0032006148b800808fd20061
:100e20008180d2000000780000f0a1008c01d00089
:100e30000001d000028641004220a80081864e00b9
:100e40004200a9004220ae004200a8000c86d30058
:100e5000bdff370000802000180060000200320053
:100e600008007800f2fd070000c0200018006000b4
:100e700002003200c8019000630498007fb0970020
:100e80000e0750000fb99700110009000287d80023
:100e900080017800010037008001eb00030078003a
:100ea0004f0778004f06be004f05be004f04be003e
:100eb0006f00b10000000600010878000000060085
:100ec000020037000304e000060032000001780051
:100ed00002007800b041780081cf5100f9ff3a005c
:100ee000010037000001eb0002007800000006005e
:100ef000889fbe008a1f78000004780030c5b300c8
:100f0000804f51000800320030c7b300804f5100bd
:100f10000500320051c2b30028089000814f5100f3
:100f200035003a00320037000869900050c6b3001f
:100f3000804f51001a003a001101780064005100fe
:100f4000800878001000be00000c9800110c98007a
:100f5000881190000300e00007003d008081eb0055
:100f60000001eb00500207000001be00880890005d
:100f700081005100080037000001eb004a02070021
:100f800000817000030032000809900082005000c8
:100f90000100370088109000410c98001d003700b8
:100fa0001180e90080087800100578007a04980024
:100fb000881490000900e00004003d000a00780059
:100fc000a7010700800478000700370009017800b6
:100fd0008000eb000a0078003aff07000000e00004
:100fe000010032008a045000490c980009003700c3
:100ff0008271780005003700808141000204e00022
:1010000001003a0001417800824978000000e800c0
:10101000200c98000000eb004f0578004f04be0044
:10102000000006000400fa00889fbe008a9fbe00f0
:101030008c1f78000004780001067800a814900046
:101040002808900080845400380890008084540060
:101050004808900080845400580890008084540010
:1010600068089000808454007808900080845400c0
:101070000002220090bf9f0000032300a0bf9f003a
:10108000381090000028a30015003a000900e00085
:1010900013003400090578008a057800e20f550036
:1010a000010036002b002000c80190000b017800e1
:1010b000ee80570068009000030001006004980073
:1010c0000000e000aa003200181090000b00400061
:1010d000101498000b0555004240a900eeff3c009b
:1010e000280990000200e0000c003400c8019000c4
:1010f0008c007800680090000300010060049800f4
:101100008080eb000000e0009a0032009810900010
:10111000280890000080400010149800380d9000be
:101120000a00e000110034008a057800e20f550043
:10113000010036002b002000c80190000b01780050
:10114000ec805700680090000300010060049800e4
:101150000000e00086003200181090000b004000f4
:10116000101498000b055500edff3700086990003a
:10117000c808900050c6b300804f510008003a00e4
:101180000100e000150034005802900008099000aa
:1011900098099000680090000400010007003700e3
:1011a0000100e0000d003400c8019000010178004a
:1011b000f8009000680090000300010060049800af
:1011c0008080eb000000e0006a0032009810900080
:1011d000480890000080400010149800580d9000be
:1011e0000a00e000110034008a057800e20f550083
:1011f000010036002b002000c80190000b01780090
:10120000ec80570068009000030001006004980023
:101210000000e00056003200181090000b00400063
:10122000101498000b055500edff37000869900079
:101230006808900051c6b300814f51000d003a007c
:101240000000e0001c00340078019000c808900005
:10125000010141006111b800828fd2008381d20068
:10126000580290008000780068009000040001009f
:10127000090037000000e0000f0034007801900002
:10128000c808900081004100c8019000000178006a
:101290006800900003000100600498008080eb006b
:1012a0000000e000330032009810900068089000c1
:1012b0000080400010149800780d90000a00e000b3
:1012c000110034008a057800e20f55000100360055
:1012d0002b002000c80190000b017800ec80570023
:1012e0006800900003000100600498000000e00026
:1012f0001f003200181090000b00400010149800de
:101300000b055500edff3700381090008000eb0012
:101310000028a300170032000900e0001500340087
:1013200009057800e28f5400010036002a002000f1
:10133000c80190000a017800ee8057006800900014
:1013400003000100600498000000e0000800320083
:10135000181090000a004000101498008a8454006d
:101360004240a900eeff3c008000eb000100370086
:101370008080eb00010078004f0678004f05be002a
:101380004f04be000080fa0000000600889fbe00e7
:1013900000047800114580000100e00002003200e6
:1013a000010078000d00370021458000408a2000b0
:1013b00004003700910f5400250036000180e8003a
:1013c000910090000100e000faff3a0010003700a1
:1013d000920f54001e0036000280e80010017800d1
:1013e0000200e000faff3a00110178002145800078
:1013f000408a200004003700910f5400140036008a
:101400000180e80091009000828f5000faff3a00be
:1014100049458000888f540001003100880478001d
:1014200009007800940007000000e00004003a0082
:10143000888f5400050032008904d100f5ff370081
:101440000918780096000700d2ff37000000eb0073
:101450004f04be0000000600881f780063044000af
:101460000800a1008000eb00800f5400210036002e
:10147000e30f540001003e004800200008007800ff
:10148000c2ff07008000eb000000e00019003200fe
:10149000900078009101780064815100880f51001c
:1014a00003003100110190000208780007003700a6
:1014b0000881400002087800910190001301980013
:1014c00010017800110914008808780010017800d4
:1014d0000000eb000200e0000400320092019000e6
:1014e0000300e000010032000280e800104588009f
:1014f0008180e800010078004f04780000000600b9
:10150000a0b1200098003700881f7800a88a20002a
:101510001804e00003003a00f9ff070020c0b30000
:10152000004c78004f04780000000600889fbe0041
:1015300000047800080078003dfc07008004780073
:101540000004200018006000020032002800900013
:10155000530007000000eb00200498003840900082
:101560000004e000050035000000fb000801070052
:101570000000e000010032008084eb0018109000b1
:101580000000e000080032000c0107000000e0004d
:10159000010032008084eb0018109000400007002a
:1015a0000000eb00101498000008200018006000f4
:1015b0000f003200618720000000eb00d10f140003
:1015c00005003a00000040008187200000804000b4
:1015d0000008eb00030037000000e800e80f5000af
:1015e000f6ff3a00080078002d0007000e003700d3
:1015f000000c780000c0eb0030449800600220002e
:10160000080040002004980040049800500498000e
:10161000400c980060049800500c980070049800ea
:1016200076004400000c9800090078004f04be00ca
:1016300000000600889fbe0088882000f004540047
:10164000480078000000e00001003200b7ff07000a
:10165000890f5400faff3a004f04be000000060054
:1016600080007800010178003104e000fdff3a00bd
:101670000000510000000600800078000000eb0030
:101680000100e0000500340001007800d4000700ec
:10169000e10f400001003a000000eb0000000600ee
:1016a0000000e0002f003200c0017800e38f5100fd
:1016b0002c0036000308a3002a003a0021458000d0
:1016c0000100e00002003200810f500004003100f0
:1016d000110098002045880016003700820078002d
:1016e000110190000200e00002003200800f510062
:1016f000faff39001102780084824000850f500003
:1017000018003900808f520003003a00830842001d
:1017100001007800070037000200e00003003200fb
:1017200083014000830f51000e0039001200980021
:1017300090009800900090000100e0000900320045
:1017400010014000828f500006003a00228a2000db
:101750000009eb0010017800110841009100900091
:101760001100980000000600010020000100e000c8
:1017700008003200010080000100e0000500320096
:101780008100e900010088008180400002008000a3
:1017900000b178000000060000c0da00000006007a
:1017a0000a00fa00e20f500034003e00304580008d
:1017b000e10f500003003200e20f500011003a0028
:1017c0000c003700032220000300e00001003a0073
:1017d0000040da002002e200020035002822ef007b
:1017e00021e2a8002342ab000d003a002342a800ea
:1017f0000b003700032320000300e00001003a0043
:101800000040da003002e200020035003822ef002a
:1018100031e2a8003342ab0001003a003342a80095
:10182000820178000b0037003102fb00e10f50000d
:1018300004003a002322ab00feff3a002411880086
:10184000030037003322ab00feff3a00a4118800ea
:101850008301e9000300e000f3ff3a00e10f5000cc
:1018600003003a002302ab00feff32000b003700fa
:101870003302ab00feff32000800370033002000c7
:10188000b3bf9f00c0bf9f00d1bf9f00e2bf9f00ba
:101890006a805700c0ff07006fb997000200780008
:1018a0000080fa00000006000300e000070032009c
:1018b000a5018000a101880010427800a5018800e0
:1018c0000402fb00820f5200110032008301e90084
:1018d000a5018000a101880010427800a5018800c0
:1018e0000404e00008003200000278001000b0009c
:1018f00000026a004260af0000f0a0000482d20043
:101900000180b000e8ff3700000020000100200047
:10191000000006003400f8000203be0082027000de
:101920008502720002f0a60000f0a6008100e80027
:10193000a10188001500b20008003200105978009b
:101940000402e9000d00320061004000fbff390095
:101950003420ec0000002800f8ff37001019780050
:101960000482e9000500320062004000fbff3900fc
:101970003420ec0000002800f8ff37003400f900a4
:101980000601be000000060000c0da0000000600ec
:101990000a00fa0011002000b1bf9f00c0bf9f00e5
:1019a0006a805700f8ff07004fb897000080fa00e0
:1019b0000000060000c0da00000006000a00fa007d
:1019c00051002000b1bf9f00c0bf9f006a80570038
:1019d000f8ff07005fb897000080fa0000000600db
:1019e000889fbe0080047800604580000000e00011
:1019f00004003a000e0007000084eb000000e00045
:101a000008003500684580000900e000050032004c
:101a100009004400060007000000e00001003d004e
:101a20000084eb00080078004f04be0000000600b0
:101a3000800078000100e00003003a000000200070
:101a400060458800000005000080eb0002002000d7
:101a5000828f500002003e00614588000000eb00cc
:101a60000000060042118800001188001111880052
:041a7000000006006c
:020000040000fa
:101a7400486500006c6c00006f200000576f000088
:0c1a8400726c00006421000000000000f3
:020000040000fa
:101a90000000fa0062002000014020000000280041
:101aa000f0ff070000802e003100200074fa0700cc
:101ab0000080fa00000006000200fa00004f7800e3
:101ac000010037000000000023c2bf006240600038
:101ad0000004e000fbff3a001e80fb00201188009c
:101ae000010037000000000023c2bf006140600019
:101af0000004e000fbff32000080fa000000060056
:101b00000600fa0010079800414798000040eb00db
:101b1000004f7800070037001e80fb00800078002f
:101b20001e0090000080400010407800e2ff070097
:101b30001e4fe8004e4090009e4f1000f6ff390007
:101b40000080fa00000006000200fa00004f780052
:101b5000c0c7b300d8ff07001e407800d6ff0700bb
:101b60000080fa00000006000000fa00c0c7b300c1
:101b7000d1ff07000040eb00cfff07000080fa0014
:101b8000000006000200fa00000f7800c0c7b30092
:101b9000c9ff070010c0b300c7ff07001e00780090
:101ba000c5ff07000080fa00000006000200fa00ee
:101bb000000f7800c0c7b300bfff070020c0b3000c
:101bc000bdff07001e007800bbff07000080fa0081
:101bd000000006000800fa00000f780011079800c6
:101be0002207980033079800c0c7b300b2ff070070
:101bf00030c0b300b0ff07001e007800aeff070042
:101c00001e009000acff07002e009000aaff070006
:101c10003e009000a8ff07000080fa0000000600c8
:101c20000000fa00c0c7b300a3ff070040c0b30024
:101c3000a1ff07000080fa00000006000800fa007b
:101c4000000f7800110798002207980033079800ca
:101c5000c0c7b30098ff070050c0b30096ff07004d
:101c60001e00780094ff07001e00900092ff0700fe
:101c70002e00900090ff07003e0090008eff0700ae
:101c80000080fa00000006000000fa00c0c7b300a0
:101c900089ff070060c0b30087ff07000080fa00db
:101ca000000006000200fa00000f78001e00e000ad
:101cb00002003c0010002000000f780060002000af
:101cc0009e0f10000200340060002000000f78001a
:101cd000c0c7b30078ff070070c0b30076ff0700ed
:101ce0001e00780074ff07000080fa000000060064
:101cf0000000fa00c0c7b3006fff070080c0b30048
:101d00006dff07000080fa00000006000200fa00e4
:101d1000000f7800c0c7b30067ff0700a0c0b30082
:101d200065ff07001e00780063ff07000080fa00cf
:101d3000000006000800fa00000f78001107980064
:101d40002207980033079800c0c7b3005aff070066
:101d5000b0c0b30058ff07001e00780056ff070010
:101d60001e00900054ff07002e00900052ff070055
:101d70003e00900050ff07000080fa0000000600bf
:101d80000a00fa00000f7800110798002207980057
:101d90003307980044079800c0c7b30046ff070008
:101da000c0c0b30044ff07001e00780042ff0700d8
:101db0001e00900040ff07002e0090003eff07002d
:101dc0003e0090003cff07004e0090003aff0700e5
:101dd0000080fa00000006000a00fa0010079800d0
:101de000210798003207980043079800c0c7b30046
:101df00031ff0700d0c0b3002fff07001e00900086
:101e00002dff07002e0090002bff07003e009000e2
:101e100029ff07000000eb00000f780007003700e3
:101e20001e007800800078004e0090000080400086
:101e30001040780020ff07001e0fe800f00120008e
:101e40009e0f1000f6ff34000080fa00000006002c
:101e50000a00fa00000f7800110798002207980086
:101e60003307980044079800c0c7b30012ff07006b
:101e7000f0c0b30010ff07001e0078000eff07003f
:101e80001e0090000cff07002e0090000aff0700c4
:101e90003e00900008ff07004e00900006ff07007c
:101ea0000080fa00000006000600fa00000f78002b
:101eb0001107980022079800c0c7b300fefe070074
:101ec00000c1b300fcfe0700000820009e0f1000b8
:101ed0000300340000c8b300f7fe07000700370016
:101ee0001e00e00003003d000040eb00f2fe070092
:101ef000020037001e007800effe07009e009000f1
:101f000000042000808f50000300340000c4b300a0
:101f1000e9fe0700080037001e0090000000e00006
:101f200003003d000040eb00e3fe07000200370025
:101f30001e009000e0fe07002e009000e10f500010
:101f4000060032002e0090000000e0000300320086
:101f500010c0b300d8fe0700020037002e0090002a
:101f6000d5fe07000080fa00000006000a00fa0013
:101f7000000f780011079800220798003307980097
:101f8000044f9800c0c7b300cbfe070020c1b300c8
:101f9000c9fe07001e007800c7fe07001e00900063
:101fa000c5fe07002e009000c3fe07003e00900013
:101fb000c1fe07000e489000bffe07000080fa0037
:101fc000000006000000fa00c0c7b300bafe070018
:101fd00040c1b300b8fe07000080fa000000060010
:101fe0000000fa00c0c7b300b3fe070050c1b30041
:101ff000b1fe07000080fa00000006000e00fa00a3
:1020000010079800210798003207980043079800ae
:102010005407980065079800c0c7b300a6fe0700e4
:1020200060c1b300a4fe07001e009000a2fe0700de
:102030002e009000a0fe07003e0090009efe0700cc
:102040004e0090009cfe07005e0090009afe070084
:10205000ce0090005e0090000088b9008200200051
:10206000110009000200d800000f78000000eb000a
:1020700010079800090037001e00900080007800cb
:102080006e00900000804000104078008afe07003b
:102090001e0090000000e800100798001e0090004d
:1020a0009e0f5000f4ff35000080fa00000006008b
:1020b0000400fa00000f780011079800c0c7b300b1
:1020c0007dfe070080c1b3007bfe07001e00780084
:1020d00079fe0700c0c7b30077fe070090c1b300c8
:1020e00075fe07001e00900073fe07000080fa00d6
:1020f000000006000400fa00100798001e0090007f
:10210000e80f500003003400800020001007980002
:102110000c0037001e0090000000e00003003c00af
:102120001000200010079800060037001e009000e5
:102130004300dd00680f50009e0078001000200072
:0c214000dbff07000080fa000000060032
:020000040000fa
:10214c00a6080000020000000200000001000000d0
:10215c0000080000880000000200000001000000e0
:10216c000026080027082600082608002608260056
:10217c00081608000000000000000000000000002d
:10218c000000000000000000000000000000000043
:10219c000002080001014e00084f08004e084e00d6
:1021ac00084e08004e083e00080000000000000029
:1021bc000000000000000000000000000000000013
:1021cc000000000000000200080202007608770000
:1021dc000876080076087600087608006608000085
:1021ec0000000000000000000000000000000000e3
:1021fc0000000000000000000000000000082800a3
:10220c000850080000000000000000000000000062
:10221c0000000000880800001a0000000200000006
:10222c00686a6c00747a4c00000001000002000027
:10223c000400080000100000000020002b2d2300db
:10224c0030000000a808000002000000020000009e
:10225c0004000000a20800000400000000000000c0
:10226c00aa0800000200000000000000ac080000fa
:0c227c0002000000000000000000000054
:020000040000fa
:102288000000fa001000200030458800fefd07001d
:102298000040eb002afe070080c1b30028fe0700bb
:1022a8000040eb0002fe070090c1b30024fe0700c7
:1022b8000040eb00fefd0700a0d32800801f780037
:1022c800d1f807008f87e90080822000d6f8070040
:1022d8001300200042002000010220000005200019
:0822e8003afe0700ffff37007a
:020000040000fa
:0200000401f009
:04000800ffffff00f7
:020000040000fa
:0200000401f009
:04000c00a30000004d
:020000040000fa
:0200000401f009
:04001000c500000027
:020000040000fa
:0200000401f009
:040014005f00000089
:00000001FF
